:100000000C942A000C943F000C943F000C943F0089
:100010000C943F000C943F000C943F000C943F0064
:100020000C943F000C943F000C943F000C943F0054
:100030000C943F000C943F000C943F000C943F0044
:100040000C943F000C943F000C943F000C943F0034
:100050000C943F0011241FBECFE5D4E0DEBFCDBF1E
:1000600010E0A0E6B0E0E4E2F2E002C005900D92FC
:10007000A036B107D9F70E9406010C9410010C9428
:100080000000DA9A00C0DA980895CF93C82F66234B
:1000900011F0D89A01C0D898D998D49AD59AD69AFE
:1000A000D79ADF98DE98DD98DC98CC230CF4DF9AA1
:1000B000C6FDDE9AC5FDDD9AC4FDDC9A0E944100B2
:1000C000DF98DE98DD98DC98C3FDDF9AC2FDDE9AEA
:1000D000C1FDDD9AC0FDDC9A0E944100DC9ADD9AE8
:1000E000DE9ADF9ACF910895882311F0D89A01C043
:1000F000D898D99AD498D598D698D798DA9A00C033
:10010000CC9902C080E001C080E1CD998062CE9997
:100110008064CF998068DA9800C0DA9A00C0CC99E0
:100120008160CD998260CE998460CF998860DA9899
:10013000089580E00E9474008823DCF300C080E012
:100140000E9474000895CF93C82F0E94990060E028
:100150008C2F0E944500CF91089581E00E94A3005A
:100160000895CF93C82F0E949900CA3049F4803473
:1001700010F480E401C080E080580E94A30004C015
:1001800061E08C2F0E944500CF910895CF93C82F36
:10019000D09AD19AD29AD49AD59AD69AD79AE0EA96
:1001A000FFE03197F1F7DD9ADC9A0E944100E0EE22
:1001B000F4E03197F1F70E944100E0E1F0E031977F
:1001C000F1F70E944100E0E1F0E03197F1F7DC98AF
:1001D0000E944100E0E1F0E03197F1F788E20E94EF
:1001E000A30088E00E94A3000E94AD0086E00E9468
:1001F000A3008C2F0E94A300CF91089580E487BBB9
:100200008DB90895779BFECF8FB108958DE00E9440
:10021000C6000E94FE000E9402010E94B100FBCFB6
:04022000F894FFCF80
:00000001FF
