:020000040000FA
:10000000680200200D030000150300001703000024
:10001000190300001B0300001D0300000000000086
:100020000000000000000000000000001F030000AE
:10003000210300000000000023030000250300004E
:1000400027030000290300002B0300002D030000FC
:100050002F030000310300003303000035030000CC
:1000600037030000390300003B0300003D0300009C
:100070003F0300004103000043030000450300006C
:1000800047030000490300004B0300004D0300003C
:100090004F0300005103000053030000550300000C
:1000A00057030000590300005B0300005D030000DC
:1000B0005F030000610300006303000065030000AC
:1000C00067030000690300006B0300006D0300007C
:1000D0006F0300007103000073030000750300004C
:1000E0007703000079030000000000007B0300009C
:1000F0007D0300007F0300008103000083030000F4
:100100008503000087030000890300008B030000C3
:1001100000000000000000008D0300008F030000BD
:100120009103000093030000950300009703000073
:10013000990300009B0300009D0300009F03000043
:1001400000000000000000000000000000000000AF
:10015000A1030000A3030000A5030000A703000003
:10016000000000000000000000000000000000008F
:10017000000000000000000000000000000000007F
:10018000000000000000000000000000000000006F
:10019000000000000000000000000000000000005F
:1001A000000000000000000000000000000000004F
:1001B000A9030000AB030000AD030000AF03000083
:1001C000B1030000B3030000B5030000B703000053
:1001D000B9030000BB030000BD030000BF03000023
:1001E000C1030000C3030000C503000000000000BD
:1001F00000000000C7030000C9030000CB0300009B
:10020000CD030000CF03000000000000000000004C
:10021000D1030000D3030000D5030000D703000082
:10022000D9030000DB030000DD030000DF03000052
:10023000E1030000E3030000E5030000E703000022
:10024000E9030000EB030000ED030000EF030000F2
:10025000F1030000F3030000F5030000F7030000C2
:10026000F9030000FB030000FD03000000F002F8AA
:1002700000F03CF80AA090E8000C82448344AAF104
:100280000107DA4501D100F031F8AFF2090EBAE802
:100290000F0013F0010F18BFFB1A43F001031847BA
:1002A000B4040000D4040000103A24BF78C878C118
:1002B000FAD8520724BF30C830C144BF04680C606C
:1002C000704700000023002400250026103A28BFB4
:1002D00078C1FBD8520728BF30C148BF0B607047B8
:1002E0001FB500F032FA1FBD10B510BD00F0F7F9D0
:1002F0001146FFF7F5FF00F0C3F900F015FA03B45B
:10030000FFF7F2FF03BC00F019FA00003F488047F6
:100310003F480047FEE7FEE7FEE7FEE7FEE7FEE7B1
:10032000FEE7FEE7FEE7FEE7FEE7FEE7FEE7FEE7A5
:10033000FEE7FEE7FEE7FEE7FEE7FEE7FEE7FEE795
:10034000FEE7FEE7FEE7FEE7FEE7FEE7FEE7FEE785
:10035000FEE7FEE7FEE7FEE7FEE7FEE7FEE7FEE775
:10036000FEE7FEE7FEE7FEE7FEE7FEE7FEE7FEE765
:10037000FEE7FEE7FEE7FEE7FEE7FEE7FEE7FEE755
:10038000FEE7FEE7FEE7FEE7FEE7FEE7FEE7FEE745
:10039000FEE7FEE7FEE7FEE7FEE7FEE7FEE7FEE735
:1003A000FEE7FEE7FEE7FEE7FEE7FEE7FEE7FEE725
:1003B000FEE7FEE7FEE7FEE7FEE7FEE7FEE7FEE715
:1003C000FEE7FEE7FEE7FEE7FEE7FEE7FEE7FEE705
:1003D000FEE7FEE7FEE7FEE7FEE7FEE7FEE7FEE7F5
:1003E000FEE7FEE7FEE7FEE7FEE7FEE7FEE7FEE7E5
:1003F000FEE7FEE7FEE7FEE7FEE7FEE7FEE70000BA
:1004000004480549034A054B704700008D0500006C
:100410006D020000680000206802002068000020D3
:1004200002465E4831B101294CD002294CD0032943
:100430004FD14BE0172A43D2DFE802F00C0E111324
:1004400016181B1D20232527292B2E30333537392D
:100450003B3D3F00524833E04FF4E11030E051485B
:100460002EE04FF416102BE04F4829E04FF46110B6
:1004700026E04E4824E04FF47A1021E04FF4960035
:100480001EE04B481CE04B481AE04B4818E04B4834
:1004900016E04FF4E10013E0494811E04FF4FA0090
:1004A0000EE048480CE03D480AE0474808E047486D
:1004B00006E0474804E0474802E04FF47A0000BFF6
:1004C00000BF06E0354804E0434802E047F2305000
:1004D00000BF00BF704770B54048046E056F15F04F
:1004E000004F29D015F4006F08D0C5F30211C4F3F2
:1004F0008310FFF795FF3A49086002E03948384910
:10050000086014F4800F40D015F4006F09D034480F
:100510000168C5F3C550401CB1FBF0F030490860DC
:1005200033E02F480168C5F3C550401CB1FBF0F023
:1005300040082B49086028E014F4006F08D0C4F389
:100540000111C4F38410FFF76BFF2549086002E036
:1005500024482349086014F4800F16D014F4006F67
:1005600009D01F480168C4F3C350401CB1FBF0F030
:100570001B49086009E01A480168C4F3C350401CD5
:10058000B1FBF0F040081649086070BD16480068DD
:1005900040F470001449086070470000001BB70069
:1005A00040420F0080841E00999E360000093D00E5
:1005B000404B4C0000204E00808D5B0000C05D0071
:1005C00000127A00809698000080BB00C0E8CE0040
:1005D000647ADA000024F400C0C62D0000E00F4069
:1005E000000000200084D71788ED00E0294800684B
:1005F00040F00400274908602748006840F00200E6
:100600002649C1F808012648006840F0F000244956
:1006100008602448244908602448006840F0F0003D
:10062000224908602248006840F0F0002049086034
:100630004FF000001F4948601F4908604FF040001C
:100640001C4908614FF0070008600846406840F008
:100650000200486070471749886000BF1549C968A3
:1006600011F0010FFAD0704700B5024604E092F98C
:100670000000FFF7F0FF521C10780028F7D100BDF2
:1006800010B5FFF783FFFFF7B1FF0CA0FFF7ECFFFA
:10069000002010BD1CE60F4008E10F4000E00F40B5
:1006A00020540040000022222C5500401C550040E0
:1006B0001055004000A00040C8AF004048656C6C79
:1006C0006F20535049200A636F6D6D756E696361C9
:1006D00074696F6E00000000704770477047754680
:1006E00000F028F8AE4605006946534620F00700A2
:1006F000854618B020B5FFF783FEBDE820404FF0D7
:1007000000064FF000074FF000084FF0000B21F0FB
:100710000701AC46ACE8C009ACE8C009ACE8C009C8
:10072000ACE8C0098D4670470446AFF30080204610
:10073000FFF7E5FD0048704704000020014918203C
:10074000ABBEFEE72600020070474FF04070E1EEBE
:10075000100A704774070000000000200400000029
:10076000A8020000780700000400002064020000D6
:08077000C402000080F0FA024F
:040000050000030DE7
:00000001FF
